{
  "contractName": "SimpleStorage",
  "abi": [
    {
      "anonymous": false,
      "inputs": [
        {
          "indexed": false,
          "internalType": "string",
          "name": "message",
          "type": "string"
        },
        {
          "indexed": false,
          "internalType": "uint256",
          "name": "newVal",
          "type": "uint256"
        }
      ],
      "name": "Change",
      "type": "event"
    },
    {
      "inputs": [
        {
          "internalType": "uint256",
          "name": "x",
          "type": "uint256"
        }
      ],
      "name": "set",
      "outputs": [],
      "stateMutability": "nonpayable",
      "type": "function"
    },
    {
      "inputs": [],
      "name": "get",
      "outputs": [
        {
          "internalType": "uint256",
          "name": "",
          "type": "uint256"
        }
      ],
      "stateMutability": "view",
      "type": "function",
      "constant": true
    }
  ],
  "bytecode": "0x608060405234801561001057600080fd5b506102a1806100206000396000f3fe608060405234801561001057600080fd5b50600436106100365760003560e01c806360fe47b11461003b5780636d4ce63c14610057575b600080fd5b61005560048036038101906100509190610118565b610075565b005b61005f6100fa565b60405161006c919061021e565b60405180910390f35b61271081106100b9576040517f08c379a00000000000000000000000000000000000000000000000000000000081526004016100b0906101d0565b60405180910390fd5b806000819055507fbb1cb5be1009ed69d54a8f3da20ed253be50c4dbbcade4f0a12114dedd9be5d7816040516100ef91906101f0565b60405180910390a150565b60008054905090565b60008135905061011281610254565b92915050565b60006020828403121561012a57600080fd5b600061013884828501610103565b91505092915050565b600061014e601983610239565b91507f53686f756c64206265206c657373207468616e203130303030000000000000006000830152602082019050919050565b600061018e600383610239565b91507f73657400000000000000000000000000000000000000000000000000000000006000830152602082019050919050565b6101ca8161024a565b82525050565b600060208201905081810360008301526101e981610141565b9050919050565b6000604082019050818103600083015261020981610181565b905061021860208301846101c1565b92915050565b600060208201905061023360008301846101c1565b92915050565b600082825260208201905092915050565b6000819050919050565b61025d8161024a565b811461026857600080fd5b5056fea2646970667358221220d565ef6027f7cdb67022e583bca2512773e6549e40ad5c8aff784e70f5042b0a64736f6c63430008000033",
  "immutableReferences": {},
  "source": "//SPDX-License-Identifier:UNLICENSED\r\npragma solidity ^0.8.0;\r\n\r\ncontract SimpleStorage {\r\n\r\n    uint storedData;\r\n\r\n    event Change(string message, uint newVal);\r\n\r\n    function set(uint x) public {\r\n        require(x < 10000, \"Should be less than 10000\");\r\n        storedData = x;\r\n        emit Change(\"set\", x);\r\n    }\r\n\r\n    function get() public view returns (uint) {\r\n        return storedData;\r\n    }\r\n}\r\n",
  "sourcePath": "C:/Users/song/sandbox/dapp-truffle/contracts/SimpleStorage.sol",
  "compiler": {
    "name": "solc",
    "version": "0.8.0+commit.c7dfd78e.Emscripten.clang"
  },
  "schemaVersion": "3.4.1",
  "updatedAt": "2021-06-01T04:14:44.618Z",
  "networkType": "ethereum",
  "devdoc": {
    "kind": "dev",
    "methods": {},
    "version": 1
  },
  "userdoc": {
    "kind": "user",
    "methods": {},
    "version": 1
  }
}